:020000040800F2
:100000000030002085240008C90D0008CB0D000831
:10001000CD0D0008CF0D0008D10D00080000000034
:100020000000000000000000000000004B0200087B
:10003000D30D0008000000007502000875240008B8
:10004000D5240008D5240008D5240008D5240008AC
:10005000D5240008D5240008D5240008D52400089C
:10006000D5240008D5240008D5240008D52400088C
:10007000D5240008D5240008D5240008D52400087C
:10008000D5240008D5240008D5240008D52400086C
:10009000D5240008D5240008D5240008D52400085C
:1000A000D5240008D5240008D5240008D52400084C
:1000B000D5240008D524000800000000D52400083D
:1000C000D52400080000000000000000D52400082E
:1000D00000000000D50D0008D5240008D524000834
:1000E000D5240008D524000800000000000000000E
:1000F0000000000000000000000000000000000000
:1001000000000000000000000000000000000000EF
:100110000000000000000000D5240008D5240008DD
:1001200000000000000000000000000000000000CF
:1001300000000000000000000000000000000000BF
:10014000D5240008D524000800000000D5240008AC
:10015000D5240008D5240008D5240008D52400089B
:10016000D5240008D524000800000000000000008D
:10017000000000000000000000000000000000007F
:0801800000000000D524000876
:1001880010B5054C237833B9044B13B10448AFF3C9
:1001980000800123237010BD0C0100200000000026
:1001A800202500080C4B43B10C480D4910B5AFF39E
:1001B80000800C48036823B910BD0A48036833B9A6
:1001C8007047094B002BF7D0BDE810401847064B85
:1001D800002BF5D0184700BF0000000020250008BC
:1001E800100100200C0100200000000029490A68C5
:1001F800002A00D172B601320A60704725490A68A0
:10020800013A002A00D162B60A607047EFF3058010
:10021800002800D00120704700BF00BF72B600BEA2
:10022800FEE7B0FA80F0704790FAA0F0B0FA80F0DC
:100238007047002080F3108800DF00BF00BF00BFB8
:100248007047022080F31488BFF36F8F1248134958
:1002580002681268B2E8F00F82F309880068086043
:100268000F48012101704EF0040E70470B480A49EF
:100278000268EFF3098323E9F00F13600A68126834
:10028800B2E8F00F82F309880A6802604EF0040EA3
:1002980070470000DC0F0020E40F0020E00F002072
:1002A8004C0D002008B50C480C4B03604FF4E133AB
:1002B800436000238360C36003610C224261836151
:1002C800C3610362436200F08CFF00B908BD44219A
:1002D800034800F099F8F9E7640F0020003801405E
:1002E800382500080268164B9A4200D0704700B5BE
:1002F80087B003F558439A6942F480429A619B6932
:1003080003F480430093009B4FF4C06301930223DE
:10031800029301230393032304930723059301A95D
:100328004FF0904001F09AF900221146252001F083
:1003380007FB252001F036FB07B05DF804FB00BF82
:100348000038014010B50446074B1868074BA3FB5B
:100358000030800901F032FB002221464FF0FF30C7
:1003680001F0EEFA002010BDB0000020D34D62105D
:1003780008B5074A136843F010031360032001F01F
:10038800CDFA0020FFF7DEFF00F028FD002008BDB1
:1003980000200240014B1868704700BFD40F0020AE
:1003A80008B54FF40071044801F022FA4FF47A704E
:1003B80001F0DCFDF5E700BF0004004808B5402166
:1003C800034801F015FA4FF47A7001F0CFFDF6E713
:1003D8000004004808B58021034801F009FA4FF4E9
:1003E8007A7001F0C3FDF6E70004004808B54FF441
:1003F8008071044801F0FCF94FF47A7001F0B6FD01
:10040800F5E700BF00040048FEE7000000B597B01C
:1004180002230C93012210921022119213930023AD
:1004280014934FF4C01315930CA800F06FF840BB59
:100438000F23079302230893002309930A930B932E
:10044800012107A800F0A0FBF8B9012300930023BD
:100458000293684601F02CF8D8B900F07FFC0F4BE6
:10046800A3FB0030800901F0A9FA042001F0BCFACE
:10047800002211464FF0FF3001F062FA17B05DF824
:1004880004FB93210648FFF7BFFFA1210448FFF7AB
:10049800BBFFA8210248FFF7B7FF00BFD34D62108A
:1004A8004425000808B5FFF763FFFFF7AFFF01F029
:1004B8009DFE01F0A1F9FFF7F5FE0C4A00210C485A
:1004C80001F0DEFA0B4A00210B4801F0D9FA0B4A79
:1004D80000210B4801F0D4FA0A4A00210A4801F029
:1004E800CFFA01F0DDFE002008BD00BF00000020AB
:1004F800F50300082C000020DD0300085800002048
:10050800C503000884000020A903000870B582B064
:100518000446036813F0010F63D0B54B5B6803F022
:100528000C03042B46D0B24B5B6803F00C03082B7A
:100538003BD06368B3F5803F00F08E80002B40F01D
:10054800918003F1804303F504331A6822F4803262
:100558001A601A6822F480221A60A54AD36A23F026
:100568000F03A1680B43D3626368002B00F09480EB
:10057800FFF710FF05464FF4003393FAA3F39C4BA3
:1005880019684FF4003393FAA3F3B3FA83F303F033
:100598001F03012202FA03F3194222D1FFF7FAFEE0
:1005A800401B6428E7D90320ABE2914B5B6813F446
:1005B800803FBED04FF4003393FAA3F38C4B1968F5
:1005C8004FF4003393FAA3F3B3FA83F303F01F0352
:1005D800012202FA03F3194203D06368002B00F0EA
:1005E8008982236813F0020F00F09C80804B5B68BF
:1005F80013F00C0F72D07E4B5B6803F00C03082BD2
:1006080067D02369002B00F0CB80012292FAA2F375
:10061800B3FA83F303F1845303F584139B001A6040
:10062800FFF7B8FE0546022393FAA3F3704B196847
:10063800022393FAA3F3B3FA83F303F01F0301220F
:1006480002FA03F3194240F09C80FFF7A3FE401B17
:100658000228E8D9032054E2654A136843F480333A
:1006680013607AE7B3F5A02F09D0614B1A6822F41A
:1006780080321A601A6822F480221A606DE703F14A
:100688008043A3F53C331A6842F480221A601A6842
:1006980042F480321A6060E7FFF77CFE05464FF4AB
:1006A800003393FAA3F3524B19684FF4003393FACB
:1006B800A3F3B3FA83F303F01F03012202FA03F34F
:1006C80019428ED0FFF766FE401B6428E7D9032045
:1006D80017E2474B5B6813F4803F92D1022393FAE9
:1006E800A3F3434B1968022393FAA3F3B3FA83F3F2
:1006F80003F01F03012202FA03F3194204D023690D
:10070800934201D00120FCE13948036823F0F80343
:100718006169F82292FAA2F2B2FA82F201FA02F2BE
:1007280013430360236813F0080F00F08D80A3695A
:10073800002B61D0012191FAA1F2B2FA82F22D4B7D
:1007480013449B001960FFF725FE0546022393FA20
:10075800A3F293FAA3F293FAA3F2254A516A93FA01
:10076800A3F3B3FA83F303F01F03012202FA03F39E
:10077800194269D1FFF70EFE401B0228E6D9032073
:10078800BFE11B48036823F0F8036169F82292FA75
:10079800A2F2B2FA82F201FA02F213430360C1E74D
:1007A800012393FAA3F3B3FA83F303F1845303F514
:1007B80084139B0000221A60FFF7ECFD0546022314
:1007C80093FAA3F30A4B1968022393FAA3F3B3FA33
:1007D80083F303F01F03012202FA03F31942A1D0A5
:1007E800FFF7D8FD401B0228E9D9032089E100BFA3
:1007F8000010024020819010012292FAA2F2B2FA6F
:1008080082F2C14B13449B0000221A60FFF7C2FD1D
:100818000546022393FAA3F293FAA3F293FAA3F2FA
:10082800BA4A516A93FAA3F3B3FA83F303F01F03A6
:10083800012202FA03F3194206D0FFF7ABFD401B71
:100848000228E6D903205CE1236813F0040F00F0C6
:10085800B380AE4BDB6913F0805F26D1AB4BDA690E
:1008680042F08052DA61DB6903F080530193019B07
:100878000125A74B1B6813F4807F18D0E368012B70
:1008880029D073BB03F1804303F504331A6A22F0BD
:1008980001021A621A6A22F004021A62E368002B43
:1008A8005DD0FFF777FD064647E00025E1E7984A67
:1008B800136843F480731360FFF76CFD0646944B8E
:1008C8001B6813F4807FD9D1FFF764FD801B64286F
:1008D800F5D9032015E18D4A136A43F00103136229
:1008E800DCE7052B09D0894B1A6A22F001021A624B
:1008F8001A6A22F004021A62D0E7844B1A6A42F09C
:1009080004021A621A6A42F001021A62C6E77F4BB1
:10091800196A022393FAA3F3B3FA83F303F01F03CC
:10092800012202FA03F3194245D1FFF733FD801B78
:1009380041F28833984200F2DF80022393FAA3F24F
:1009480093FAA3F3B3FA83F35B0943F00203022B90
:10095800DDD0022393FAA3F36C4B596AD9E7FFF76A
:1009680019FD064615E0694B196A022393FAA3F3A9
:10097800B3FA83F303F01F03012202FA03F31942C7
:1009880019D0FFF707FD801B41F28833984200F227
:10099800B580022393FAA3F293FAA3F3B3FA83F38D
:1009A8005B0943F00203022BDDD0022393FAA3F381
:1009B800564B596AD9E7B5BBE369002B00F0A08014
:1009C800524A526802F00C02082A00F0A380022B57
:1009D8002FD04FF0807393FAA3F3B3FA83F303F1A4
:1009E800845303F584139B0000221A60FFF7D2FC9E
:1009F80004464FF0007393FAA3F3444B19684FF081
:100A0800007393FAA3F3B3FA83F303F01F030122ED
:100A180002FA03F319426BD0FFF7BCFC001B022853
:100A2800E7D903206DE0394AD36923F08053D361B5
:100A3800C2E74FF0807393FAA3F3B3FA83F303F199
:100A4800845303F584139B0000221A60FFF7A2FC6D
:100A580005464FF0007393FAA3F32C4B19684FF037
:100A6800007393FAA3F3B3FA83F303F01F0301228D
:100A780002FA03F3194206D0FFF78CFC401B022848
:100A8800E7D903203DE021494B6823F47413626AD7
:100A9800206A024313434B604FF0807393FAA3F329
:100AA800B3FA83F303F1845303F584139B00012203
:100AB8001A60FFF76FFC04464FF0007393FAA3F334
:100AC800124B19684FF0007393FAA3F3B3FA83F348
:100AD80003F01F03012202FA03F3194206D1FFF7BC
:100AE80059FC001B0228E7D903200AE0002008E08F
:100AF800002006E0012004E0032002E0032000E0DB
:100B0800002002B070BD00BF20819010001002408C
:100B1800007000400120F4E7164B5B6803F00C02FC
:100B2800082A24D103F470114FF4701292FAA2F239
:100B3800B2FA82F221FA02F20F49885C0D4AD26AAF
:100B480002F00F020F2191FAA1F1B1FA81F1CA4026
:100B58000A498A5C13F4803F03D1094B03FB00F078
:100B68007047084BB3FBF2F303FB00F070470548EE
:100B7800704700BF0010024050250008602500089B
:100B880000093D0000127A00704B1B6803F0070350
:100B98008B420CD26D4A136823F007030B43136092
:100BA800136803F00703994201D00120704770B51C
:100BB800036813F0020F06D0654A536823F0F00368
:100BC8008468234353600D460446036813F0010FFD
:100BD8007AD04368012B2FD0022B42D0022292FAFE
:100BE800A2F25B4A1068022292FAA2F2B2FA82F2E8
:100BF80002F01F02012101FA02F2104200F0A48063
:100C080053494A6822F0030213434B60FFF7C2FBC3
:100C180006466368012B39D0022B46D04C4B5B68E3
:100C280013F00C0F50D0FFF7B5FB801B41F288334F
:100C38009842F3D9032070BD4FF4003292FAA2F221
:100C4800434A10684FF4003292FAA2F2B2FA82F2E2
:100C580002F01F02012101FA02F21042D0D1012054
:100C680070BD4FF0007292FAA2F2394A10684FF044
:100C7800007292FAA2F2B2FA82F202F01F02012185
:100C880001FA02F21042BBD1012070BD304B5B6803
:100C980003F00C03042B17D0FFF77CFB801B41F2F9
:100CA80088339842F2D9032070BD294B5B6803F062
:100CB8000C03082B08D0FFF76DFB801B41F288332B
:100CC8009842F2D9032070BD204B1B6803F007033C
:100CD8009D420CD21D4A136823F007032B4313606F
:100CE800136803F007039D4201D0012070BD2368FB
:100CF80013F0040F06D0164A536823F4E063E16842
:100D08000B435360236813F0080F07D0104A536849
:100D180023F46053216943EAC1035360FFF7FCFEE3
:100D28000B4B5B6803F0F003F02292FAA2F2B2FADE
:100D380082F2D340074AD35CD840074B18600020A2
:100D4800FFF700FB002070BD012070BD00200240AD
:100D58000010024070250008B0000020014B186800
:100D6800704700BFB000002008B5FFF7F7FF074B3A
:100D78005B6803F4E0634FF4E06292FAA2F2B2FA1D
:100D880082F2D340024AD35CD84008BD001002402A
:100D98008025000808B5FFF7E1FF074B5B6803F4FF
:100DA80060534FF4605292FAA2F2B2FA82F2D34040
:100DB800024AD35CD84008BD0010024080250008D4
:100DC8007047FEE7FEE7FEE7FEE7704708B5024812
:100DD80000F0C0FA08BD00BF640F002000B583B062
:100DE8001C4B9A6942F001029A619B6903F0010366
:100DF8000193019B032000F091FD002211466FF042
:100E08000B0000F09DFD002211466FF00A0000F073
:100E180097FD002211466FF0090000F091FD0022B5
:100E280011466FF0040000F08BFD002211466FF0B0
:100E3800030000F085FD002211466FF0010000F06C
:100E48007FFD002211464FF0FF3000F079FD03B01E
:100E58005DF804FB0010024070470268136823F431
:100E6800907313600268936823F001039360202352
:100E780080F86A30704770477047704708B5406A15
:100E88000023A0F85A30A0F85230FFF7F6FF08BD4B
:100E980038B5044683680269134342691343C2693B
:100EA800134301680868644A024013430B602268D0
:100EB800536823F44053E1680B435360A369226AE3
:100EC800134321688A6822F4306213438B602568D3
:100ED8005A4B9D4215D05A4B9D4229D003F5806349
:100EE8009D4221D01023E269B2F5004F22D0082B91
:100EF80000F29F80DFE803F066717C9D889D9D9DD0
:100F0800930003F558431B6B03F00303032B09D825
:100F1800DFE803F00204060C0023E4E70423E2E719
:100F28000823E0E71023DEE70023DCE70223DAE703
:100F38000023D8E7082B42D8DFE803F00517224141
:100F48002D4141413800FFF70FFF6268530803EB5A
:100F58004003B3FBF2F39BB2002023F00F02C3F36C
:100F6800420313432268D36038BDFFF713FF62685A
:100F7800530803EB4003B3FBF2F39BB20020ECE70A
:100F88006268530803F5740303F51053B3FBF2F3D7
:100F98009BB20020E1E7FFF7BFFD6268530803EB4F
:100FA8004003B3FBF2F39BB20020D6E76268530814
:100FB80003F58033B3FBF2F39BB20020CDE70120A9
:100FC8000023CAE7FFF7D0FE636800EB5300B0FBCD
:100FD800F3F080B2E860002038BDFFF7DBFE6368FD
:100FE80000EB5300B0FBF3F080B2E860002038BD9E
:100FF8006268530803F5F40303F59053B3FBF2F367
:101008009BB2EB60002038BDFFF786FD636800EBFC
:101018005300B0FBF3F080B2E860002038BD62688E
:10102800530803F50043B3FBF2F39BB2EB600020D7
:1010380038BD012038BD00BFF369FFEF003801401B
:1010480000440040436A13F0010F06D00268536859
:1010580023F40033816A0B435360436A13F0020F91
:1010680006D00268536823F48033C16A0B43536087
:10107800436A13F0040F06D00268536823F48023F0
:10108800016B0B435360436A13F0080F06D00268E4
:10109800536823F40043416B0B435360436A13F0D6
:1010A800100F06D00268936823F48053816B0B43BA
:1010B8009360436A13F0200F06D00268936823F404
:1010C8000053C16B0B439360436A13F0400F0AD07F
:1010D8000268536823F48013016C0B435360036C5C
:1010E800B3F5801F0BD0436A13F0800F06D0026857
:1010F800536823F40023816C0B43536070470268E4
:10110800536823F4C003416C0B435360EBE72DE9AC
:10111800F04105460F4616469846069C2B68DB6943
:1011280037EA03030CBF01230023B3421ED1B4F1F5
:10113800FF3FF3D02CB1FFF72DF9A0EB0800844254
:10114800ECD22A68136823F4D07313602A68936872
:1011580023F001039360202385F8693085F86A300D
:10116800002385F868300320BDE8F0810020BDE841
:10117800F08130B583B004460023C366FFF70AF94F
:10118800054623681B6813F0080F0ED123681B68F7
:1011980013F0040F17D1202384F8693084F86A30DB
:1011A800002084F8680003B030BD6FF07E430093E0
:1011B800034600224FF400112046FFF7A8FF00283D
:1011C800E4D00320EFE76FF07E4300932B46002224
:1011D8004FF480012046FFF79AFF0028DBD0032058
:1011E800E1E778B310B5044690F869300BB32423CF
:1011F80084F869302268136823F0010313602046DD
:10120800FFF746FE01281FD0636ABBB922685368FE
:1012180023F4904353602268936823F02A03936071
:101228002268136843F0010313602046FFF7A1FF0B
:1012380010BD80F86830FFF755F8D8E72046FFF76B
:1012480001FFE3E70120704710BD90F86930DBB279
:10125800212B01D002207047B0F852309BB293B1D5
:101268008368B3F5805F1AD00268C36C591CC164E7
:101278001B781385B0F852309BB2013B9BB2A0F8A3
:101288005230002070470268136823F0800313600F
:101298000268136843F04003136000207047036935
:1012A800002BE1D1C36C02681B88C3F308031385C4
:1012B800C36C0233C364DDE708B501680B6823F02B
:1012C80040030B60202380F86930FFF7D4FD00202D
:1012D80008BDB0F85C2090F86A30DBB2222B06D04B
:1012E8000268936943F0080393610220704710B5C0
:1012F80003689B8C9BB28168B1F5805F0FD0416D0C
:101308004C1C4465D2B21A400A70B0F85A309BB2ED
:10131800013B9BB2A0F85A305BB1002010BD0169B7
:101328000029ECD1416D1A400A80436D02334365B0
:10133800EBE70268136823F49073136002689368FC
:1013480023F001039360202380F86A30FFF794FDAF
:10135800002010BD38B504460268D369116813F03F
:101368000F0505D113F0200F02D011F0200F60D126
:101378009068002D72D010F0010502D111F4907F11
:101388006CD013F0010F07D011F4807F04D0012036
:101398001062E26E0243E26613F0020F07D035B125
:1013A800226802201062E26E42F00402E26613F044
:1013B800040F07D035B1226804201062E26E42F0B3
:1013C8000202E26613F0080F09D011F0200F00D1D5
:1013D8002DB1226808201062E26E0243E266E26ED6
:1013E800002A4DD013F0200F02D011F0200F23D186
:1013F800E36E13F0080F04D123689B6813F0400FC5
:1014080026D02046FFF729FD23689A6812F0400F7E
:101418001AD09A6822F040029A60636E83B1234A18
:101428005A63606E00F020FA50B3606E436B9847C1
:1014380038BDFFF74EFF38BD2046FFF74AFFD7E714
:101448002046FFF71AFD38BD2046FFF716FD38BDC8
:101458002046FFF712FD0023E36638BD13F4801F12
:1014680002D010F4800F0CD113F0800F02D011F0CD
:10147800800F12D113F0400F02D011F0400F10D19D
:1014880038BD4FF480131362202384F8693084F840
:101498006A302046FFF7E0FC38BD2046FFF7D5FE4E
:1014A80038BD2046FFF708FFEAE700BF850E0008B1
:1014B800F0B583B00446036813F4803F44D0644B0E
:1014C800DB6913F0805F79D1614BDA6942F08052B1
:1014D800DA61DB6903F080530193019B01255D4BC1
:1014E8001B6813F4807F6BD0594B1B6A13F440734D
:1014F80021D0626802F4407293421CD05448016AB9
:1015080021F440764FF4803393FAA3F2B2FA82F2D0
:10151800514F3A4492004FF0010EC2F800E093FA9E
:10152800A3F3B3FA83F33B449B0000221A600662DC
:1015380011F0010F58D1464A136A23F440736168C9
:101548000B431362002D7AD1236813F0010F06D0E4
:101558003F4A136B23F00303A1680B43136323680B
:1015680013F0200F06D03A4A136B23F01003E168FA
:101578000B431363236813F0800F06D0344AD36AF1
:1015880023F4F87321690B43D362236813F4805F53
:1015980006D02F4A136B23F4807361690B431363DE
:1015A800236813F4804F51D0294A136B23F48053D6
:1015B800A1690B431363002003B0F0BD00258EE73B
:1015C800244A136843F480731360FEF7E3FE06466B
:1015D800204B1B6813F4807F86D1FEF7DBFE801B4F
:1015E8006428F5D90320E7E7FEF7D4FE064614E0A1
:1015F800174B196A022393FAA3F3B3FA83F303F0A0
:101608001F03012202FA03F3194294D1FEF7C2FE26
:10161800801B41F28833984216D8022393FAA3F22A
:1016280093FAA3F3B3FA83F35B0943F00203022BA3
:10163800DED0022393FAA3F3054B596ADAE7D3699C
:1016480023F08053D3617FE70320B5E70020B3E799
:10165800001002400070004000819010F0B583B087
:10166800002388E0DE08083650F8264003F0070E0D
:101678004FEA8E0E0F2707FA0EF724EA07040F69C0
:1016880007FA0EF73C4340F8264083E08668264078
:10169800CF6807FA0EF73E438660466826EA0505D6
:1016A8004E68C6F300169E4035434560C5682C4019
:1016B8008D6805FA0EF52C43C4604C6814F0805F01
:1016C80058D0474CA56945F00105A561A46904F007
:1016D80001040194019C9D08AE1C424C54F826401C
:1016E80003F00306B6000F27B74024EA0704B0F159
:1016F800904F6CD03C4FB8426BD007F58067B8422A
:1017080069D007F58067B8425FD0052707FA06F663
:1017180034430235334E46F82540344C2568D443CB
:1017280005EA04064F6817F4803F01D042EA05062F
:101738002E4D2E606D6804EA05064F6817F4003FC9
:1017480001D042EA0506294D6E60AD6804EA050637
:101758004F6817F4801F01D042EA0506234DAE609A
:10176800ED682C404E6816F4001F01D042EA0504CB
:101778001E4AD46001330A6832FA03F42DD00125D9
:101788009D402A40F6D04C68022C3FF46BAF122CD7
:101798003FF468AF06684FEA430E032404FA0EF4D8
:1017A800E44326404F6807F0030707FA0EF73E4365
:1017B80006604E68771E012F7FF668AF112E3FF442
:1017C80065AF122E7FF472AF60E703279EE700270C
:1017D8009CE701279AE7022798E703B0F0BD00BF0E
:1017E80000100240000001400004004800040140CD
:1017F800436959404161704730B589B0184B5A69FF
:1018080042F480025A615A6902F480020092009AF6
:101818005A6942F400325A615A6902F4003201925C
:10182800019A5A6942F480225A615B6903F4802361
:101838000293029B4FF6FF1303930325049500249C
:10184800059403A94FF09040FFF708FFFB2303938B
:101858000495059403A90348FFF700FF09B030BDBC
:10186800001002400004004808B590F82130022B0F
:1018780003D004238363012008BD0268136823F0A2
:101888000E0313600268136823F001031360C16B31
:10189800036C012202FA03F34B6080F82120002335
:1018A80080F82030436B13B19847002008BD002012
:1018B80008BD00001549D1F8883043F47003C1F819
:1018C8008830134B1A6842F001021A605868114AAE
:1018D80002405A601A6822F0847222F480321A6038
:1018E8001A6822F480221A605A6822F4FE025A60AA
:1018F800DA6A22F00F02DA62186B074A02401A63AA
:1019080000229A604FF000638B60704700ED00E0A2
:10191800001002400CC07FF8CCFC00FF074AD368D7
:1019280023F4E0631B041B0C000200F4E06018437E
:1019380040F0BF6040F40030D060704700ED00E038
:1019480030B4164BDB68C3F30223C3F10704042C3D
:1019580028BF04241D1D062D17D9033B012505FAB0
:1019680004F4013C2140994005FA03F3013B13407C
:10197800194300280BDB0901C9B200F1604000F5EA
:10198800614080F8001330BC70470023E6E700F0A0
:101998000F000901C9B2024B1954F4E700ED00E049
:1019A80014ED00E0420900F01F00012303FA00F0E3
:1019B800014B43F82200704700E100E00138B0F124
:1019C800807F0AD2064B5860F021064A82F823101D
:1019D8000020986007221A6070470120704700BFF6
:1019E80010E000E000ED00E0042805D0054A136887
:1019F80023F0040313607047024A136843F004039A
:101A08001360704710E000E00346828912F0A00FCF
:101A180005D0C0699969084218D1002000E000206B
:101A280012F0500F16D010B4DC6999698C420FD0AF
:101A380048B112F0C00F01D00021D961002199618D
:101A480022F0F0029A815DF8044B70470120E7E725
:101A58000120EDE70028F8D012F0C00F01D00021D6
:101A6800D9610021996122F0F0029A81704710B57E
:101A78008489214381818261FFF7C6FF10BD000080
:101A8800F8B505460E461446FEF7C0FB10B104240F
:101A98002046F8BD002D3DD0002C3DD0214B1B68C1
:101AA8009C423BD0A37B1F2B01D90224F0E723697A
:101AB8003F2B01D80224EBE763688BB3FEF796FB54
:101AC80007460023A361A38123620123E37304F182
:101AD80024036362A362636820693246294603EBE4
:101AE800800000F05DFC206058B16368C31A9B1049
:101AF800A360204600F0AAFA044628B1FEF78CFB42
:101B0800FEE7FEF789FBFEE73846FEF777FB00F0B5
:101B18000BFBBDE70224BBE70224B9E70224B7E7C1
:101B28000224B5E7E00F00202DE9F8430E46904661
:101B38001D46044650B1FEF769FB70B104274FF00B
:101B4800FF3405B12F702046BDE8F883214B1C688F
:101B5800002CF0D1FEF760FBFEE7FEF747FB81465D
:101B6800B8F1030F20D8DFE808F0020D1319324648
:101B780010212046FFF77BFFE0B1E4694846FEF7F5
:101B88003DFBDEE7324620212046FFF770FFF3E7F2
:101B9800324640212046FFF76AFFEDE732468021B2
:101BA8002046FFF764FFE7E7FEF728FB02274FF020
:101BB800FF34C6E7204600F07FFA074610B1FEF76B
:101BC8002BFBFEE74846FEF719FB00F0ADFAE46987
:101BD800B7E700BFE00F002070B5F0B104460D462E
:101BE800FEF704FB0646E3692B43E3612046FFF753
:101BF8000BFF38B1204600F029FA044638B1FEF749
:101C08000BFBFEE73046FEF7F9FA002406E0304603
:101C1800FEF7F4FA00F088FA00E00224204670BDCE
:101C280070B5F8B104460D46FEF7E0FA0646E369DA
:101C380023EA0503E3612046FFF7E6FE38B12046B4
:101C480000F004FA044638B1FEF7E6FAFEE730463B
:101C5800FEF7D4FA002406E03046FEF7CFFA00F08B
:101C680063FA00E00224204670BD0000014B1868AA
:101C7800704700BFE00F0020384A13680133136033
:101C8800374A1368934230D00BB1243B15E0002348
:101C980013E0344A136015E013F124021DD03049D3
:101CA800496891421BD0596AE9B122B12C49496867
:101CB8008A4216D05A6AA2F12403B3B1294A12689B
:101CC800002AE6D0274A126851695A699142E3D935
:101CD800002AE1D0234A1360DEE71146E4E7002139
:101CE800E2E70022E7E70023E7E71F4A1368934289
:101CF80033D013B1A3F58C7317E0002315E01B4A0A
:101D0800136017E013F58C721FD0174949688A428F
:101D18001DD0D3F81811F1B12AB1134949688A4284
:101D280017D0D3F81821A2F58C73B3B10F4A1268F3
:101D3800002AE4D00D4A126811681A689142E1D964
:101D4800002ADFD0094A1360DCE71146E3E70021E7
:101D5800E1E70022E7E70023E7E770473C0C0020B3
:101D6800280900203809002030090020D80F002059
:101D780030B583B0FEF73AFA764B1B605B600024FF
:101D8800754B1C60754B1B605B60754B1C60FEF7E8
:101D980035FAABE00DF1070301220F210020FFF710
:101DA800C3FE04469DF80730012B40F0A280FEF7E1
:101DB80033FAFEE7FEF730FAFEE70023C2E000221E
:101DC800674B1A6007E0FEF727FAFEE700231EE0DC
:101DD8000022634B1A60624B1B685969614A12689A
:101DE80091421AD8CBB19A8922F480729A819A6A60
:101DF800596A11605A6A9B6A5360594B186800F017
:101E080025F90028DFD1554A13689342DED0002B0C
:101E1800DED0243B524A1360DDE74F4B1B6819683C
:101E2800504A1268914258D8002B56D0D3F81C213A
:101E3800D3F818111160D3F81821D3F81C31536066
:101E4800454B1B689A6812B11946D8689047424BAF
:101E58001B6800229A7401221A743E4A136893423E
:101E680005D033B1A3F58C733B4A136017E0002308
:101E7800F7E70022384B1A6011E01946D8689047F6
:101E8800354B1B6800229A7401221A74314A136870
:101E980093421CD0EBB1A3F58C732F4A13602E4BE1
:101EA8001B6819682F4A1268914216D8ABB1D3F84B
:101EB8001C21D3F818111160D3F81821D3F81C315C
:101EC8005360254B1B689A68002AD6D1D8E70023AF
:101ED800E0E70022204B1A60E1E72846FEF78EF97A
:101EE800082100E000212048FFF79AFE002C3FF46B
:101EF80051AF14F0080FF5D024F00804FEF776F976
:101F08000546FFF7B9FE164B1B685969154A126852
:101F1800914282D8002B80D09A8922F480729A81CB
:101F28009A6A596A11605A6A9B6A53600C4B18681E
:101F380000F08CF800287FF43DAF084A13689342FC
:101F48003FF43BAF002B3FF43AAF243B044A136005
:101F580041E700BF30090020D80F002028090020E1
:101F6800380900203C0C0020B400002010B90223DE
:101F78001846704770B50546FFF778FE044648B125
:101F8800FEF734F90646204600F096F828B1FEF729
:101F980043F9FEE7FEF740F9FEE70D4B1B681D44C9
:101FA8006561A38943F48073A38104F12402094B7A
:101FB80063625968A1620A605A603046FEF71EF9EA
:101FC80000F0B2F800B970BDFEF726F9FEE700BFD1
:101FD8003C0C00202809002000B1FEE708B5FEF7F8
:101FE8001BF9FEE710B50446154B1B785BB1154B82
:101FF8001A68136851685B1A9B1093601269920003
:10200800B2EB830F04D334B1206838B90E4810BD41
:10201800FEF702F9FEE7FEF7FFF8FEE7FEF701F923
:10202800C0F11F03DBB204EBC304221D60688242C7
:1020380002D018B1243810BD0020FAE7024810BDBC
:102048004C0D0020E00F0020E000002010B530B358
:102058000246164B1B785BB1154B19680B6848682C
:102068001B1A9B108B6009698900B1EB830F19D388
:10207800938993B9947B012101FA04F00D4B1968F7
:102088000143196003EBC403181D02F124015062D7
:10209800986890629A6811609960002010BDFEF7F8
:1020A800BBF8FEE7FEF7B8F8FEE700BF4C0D0020CE
:1020B800E00F0020480C002008B5F8B10246174B85
:1020C8001B785BB1164B19680B6848681B1A9B1084
:1020D8008B6009698900B1EB830F12D3936A516A47
:1020E8001960536A916A5960927B0E4B03EBC203E5
:1020F800191D5B68994207D0002008BDFEF78CF8CF
:10210800FEE7FEF789F8FEE7012303FA02F2054924
:102118000B6823EA02030B60EEE700BF4C0D0020BA
:10212800E00F0020480C002008B5184B1B784BB373
:10213800174B1B680BB1032008BD1648FFF752FF69
:10214800154B1860C0B1114B1B785BB1134B1A6863
:10215800136851685B1A9B10936012699200B2EB86
:10216800830F0CD30C4B1A680C4B1B689A420BD08C
:1021780000F054F9002008BD094A1A60E3E7FEF7A9
:102188004BF8FEE7012008BD002008BD4C0D0020DB
:10219800400C0020480C0020E40F0020E00F002035
:1021A800E000002008B50F4B1B785BB10E4B1A6896
:1021B800136851685B1A9B10936012699200B2EB26
:1021C800830F02D30023036009E0FEF725F8FEE73A
:1021D80000EBC302111D516091600133DBB21F2B6C
:1021E800F6D908BD4C0D0020E00F002038B50024BA
:1021F8001C4B1C60FDF7FAFF05461B48FFF7D2FF92
:102208001A4B1B605B601A4B1C601A4B1C601A4B04
:102218001C602846FDF7F2FF1849194B1B680B6034
:10222800184B1B684B60184B8B60184A1848FFF70F
:1022380027FC10B1FDF7F0FFFEE7144C2046FFF72E
:102248003BFFFF23A373134A00211348FFF718FC31
:1022580020B90122114B1A70002038BDFDF7DCFFB0
:10226800FEE700BFDC0F0020480C0020500D0020C6
:10227800400C0020E00F0020E40F0020580F002041
:1022880038090020D80F00203C0C0020E000002076
:10229800E11F0008B4000020791D0008440C00204C
:1022A80008B5094B1B780BB9012008BD00F0BEF832
:1022B8000648FFF797FE064B186010B1FDF7B9FF07
:1022C800F2E7FDF7A9FFFEE7440C0020480C0020C8
:1022D800E40F002008B5144B197859B1134B1A684C
:1022E800136850681B1A9B10936012699200B2EB36
:1022F800830F01D319B908BDFDF78EFFFEE7FDF77F
:1023080085FF0028F7D00A4B1B68B3F1FF3F02D0C6
:102318000133074A1360074B1B68B3F1FF3FEAD04C
:102328000133044A1360E6E74C0D0020E00F00205B
:10233800400C0020DC0F002008B5154B197859B166
:10234800144B1A68136850681B1A9B109360126923
:102358009200B2EB830F01D319B908BDFDF75CFFFA
:10236800FEE7FDF753FF0028F7D00B4B1B6813B1AE
:10237800013B094A1360094B1B68002BEDD0013B58
:10238800064A1360002BE8D1FFF7CEFEE5E700BF51
:102398004C0D0020E00F0020DC0F0020400C002036
:1023A8006FF0020340F80C3C40F8081C4FF08073B3
:1023B80040F8043C40F8202C4FF0113340F81C3C06
:1023C8004FF0223340F8183C4FF0333340F8143CB8
:1023D8004FF0443340F8403C4FF0553340F83C3C14
:1023E8004FF0663340F8383C4FF0773340F8343CD0
:1023F8004FF0883340F8303C4FF0993340F82C3C8C
:102408004FF0AA3340F8283C4FF0BB3340F8243C47
:102418004FF0CC3340F8103C40387047024A5368BC
:1024280043F080535360704700ED00E00A4B4FF4CF
:1024380000725A61FE2283F82220FF2283F82320AB
:10244800DA77A3F54F6300221A6042F6E0625A6019
:1024580007221A60704700BF00ED00E008B50821A8
:102468000148FFF7B9FB08BDB400002008B5FFF725
:1024780031FFFFF7F3FFFFF75FFF08BDDFF834D048
:10248800002103E00C4B5B58435004310B480C4BC4
:1024980042189A42F6D30B4A02E0002342F8043B62
:1024A800094B9A42F9D3FFF705FA00F011F8FDF746
:1024B800F9FFFEE70030002090250008000000200A
:1024C8000C0100200C010020E80F0020FEE70000AE
:1024D80070B50D4E0D4CA41BA4100025A54209D1C2
:1024E8000B4E0C4C00F018F8A41BA4100025A542B4
:1024F80005D170BD56F8253098470135EEE756F8F6
:10250800253098470135F2E7882500088825000816
:10251800882500088C250008F8B500BFF8BC08BC61
:102528009E467047F8B500BFF8BC08BC9E46704789
:102538005372632F75736172742E63005372632F25
:102548006D61696E2E630000020304050607080921
:102558000A0B0C0D0E0F10100102030405060708E4
:10256800090A0B0C0D0E0F100000000000000000FF
:102578000102030406070809000000000102030421
:04258800AD01000899
:04258C0089010008B9
:1025900000000000280100200000000000000400EE
:1025A00080000000000000000000000000000000AB
:1025B000000000000000000000000000000000001B
:1025C000280300200000000000000400800000003C
:1025D00000000000000000000000000000000000FB
:1025E000000000000000000000000000280500209E
:1025F0000000000000000400800000000000000057
:1026000000000000000000000000000000000000CA
:10261000000000000000000028070020000000006B
:102620000000040080000000000000000000000026
:10263000000000000000000000000000000000009A
:1026400000127A00000000003C0900200000000099
:1026500000001800C00000000000000000000000A2
:10266000000000000000000000000000000000006A
:1026700000000000580D00200000000000000000D5
:1026800080000000000000000000000000000000CA
:0C2690000000000000000000000000003E
:040000050800248546
:00000001FF
